{
  "_format": "hh-sol-artifact-1",
  "contractName": "CrowdFund",
  "sourceName": "contracts/CrowdFund.sol",
  "abi": [
    {
      "inputs": [
        {
          "internalType": "address",
          "name": "_address",
          "type": "address"
        }
      ],
      "stateMutability": "nonpayable",
      "type": "constructor"
    },
    {
      "inputs": [],
      "name": "ErrAmountZero",
      "type": "error"
    },
    {
      "inputs": [],
      "name": "ErrCallerNotDonor",
      "type": "error"
    },
    {
      "inputs": [],
      "name": "ErrCallerNotFundRaiser",
      "type": "error"
    },
    {
      "inputs": [],
      "name": "ErrCallerNotOwner",
      "type": "error"
    },
    {
      "inputs": [],
      "name": "ErrCampaignHasEnded",
      "type": "error"
    },
    {
      "inputs": [],
      "name": "ErrCampaignHasNotEnded",
      "type": "error"
    },
    {
      "inputs": [],
      "name": "ErrClaimed",
      "type": "error"
    },
    {
      "inputs": [],
      "name": "ErrEndAtBeforeStartAt",
      "type": "error"
    },
    {
      "inputs": [],
      "name": "ErrExceedMaxRaisedDuration",
      "type": "error"
    },
    {
      "inputs": [],
      "name": "ErrGoalZero",
      "type": "error"
    },
    {
      "inputs": [],
      "name": "ErrInsufficientTokenBalance",
      "type": "error"
    },
    {
      "anonymous": false,
      "inputs": [
        {
          "indexed": true,
          "internalType": "address",
          "name": "previousOwner",
          "type": "address"
        },
        {
          "indexed": true,
          "internalType": "address",
          "name": "newOwner",
          "type": "address"
        }
      ],
      "name": "OwnershipTransferred",
      "type": "event"
    },
    {
      "inputs": [
        {
          "internalType": "uint256",
          "name": "",
          "type": "uint256"
        },
        {
          "internalType": "address",
          "name": "",
          "type": "address"
        }
      ],
      "name": "amountFundedByCampaignId",
      "outputs": [
        {
          "internalType": "uint256",
          "name": "",
          "type": "uint256"
        }
      ],
      "stateMutability": "view",
      "type": "function"
    },
    {
      "inputs": [],
      "name": "campaignId",
      "outputs": [
        {
          "internalType": "uint256",
          "name": "_value",
          "type": "uint256"
        }
      ],
      "stateMutability": "view",
      "type": "function"
    },
    {
      "inputs": [
        {
          "internalType": "uint256",
          "name": "",
          "type": "uint256"
        },
        {
          "internalType": "uint256",
          "name": "",
          "type": "uint256"
        }
      ],
      "name": "campaignUpdates",
      "outputs": [
        {
          "internalType": "string",
          "name": "description",
          "type": "string"
        },
        {
          "internalType": "uint256",
          "name": "timestamp",
          "type": "uint256"
        }
      ],
      "stateMutability": "view",
      "type": "function"
    },
    {
      "inputs": [
        {
          "internalType": "uint256",
          "name": "",
          "type": "uint256"
        }
      ],
      "name": "campaigns",
      "outputs": [
        {
          "internalType": "string",
          "name": "title",
          "type": "string"
        },
        {
          "internalType": "uint256",
          "name": "campaignId",
          "type": "uint256"
        },
        {
          "internalType": "uint256",
          "name": "createdAt",
          "type": "uint256"
        },
        {
          "internalType": "uint256",
          "name": "endAt",
          "type": "uint256"
        },
        {
          "internalType": "string",
          "name": "category",
          "type": "string"
        },
        {
          "internalType": "address",
          "name": "fundraiser",
          "type": "address"
        },
        {
          "internalType": "uint256",
          "name": "goal",
          "type": "uint256"
        },
        {
          "internalType": "uint256",
          "name": "amountRaised",
          "type": "uint256"
        },
        {
          "internalType": "bool",
          "name": "claimed",
          "type": "bool"
        },
        {
          "internalType": "string",
          "name": "description",
          "type": "string"
        },
        {
          "internalType": "string",
          "name": "location",
          "type": "string"
        },
        {
          "internalType": "string",
          "name": "campaignImageUrl",
          "type": "string"
        }
      ],
      "stateMutability": "view",
      "type": "function"
    },
    {
      "inputs": [
        {
          "internalType": "uint256",
          "name": "_campaignId",
          "type": "uint256"
        }
      ],
      "name": "claim",
      "outputs": [],
      "stateMutability": "nonpayable",
      "type": "function"
    },
    {
      "inputs": [
        {
          "internalType": "string",
          "name": "_category",
          "type": "string"
        },
        {
          "internalType": "uint256",
          "name": "_goal",
          "type": "uint256"
        },
        {
          "internalType": "string",
          "name": "_description",
          "type": "string"
        },
        {
          "internalType": "string",
          "name": "_title",
          "type": "string"
        },
        {
          "internalType": "uint256",
          "name": "_endAt",
          "type": "uint256"
        },
        {
          "internalType": "string",
          "name": "_location",
          "type": "string"
        },
        {
          "internalType": "string",
          "name": "_campaignImageUrl",
          "type": "string"
        }
      ],
      "name": "createCampaign",
      "outputs": [],
      "stateMutability": "nonpayable",
      "type": "function"
    },
    {
      "inputs": [
        {
          "internalType": "uint256",
          "name": "_campaignId",
          "type": "uint256"
        },
        {
          "internalType": "string",
          "name": "_description",
          "type": "string"
        }
      ],
      "name": "createCampaignUpdate",
      "outputs": [],
      "stateMutability": "nonpayable",
      "type": "function"
    },
    {
      "inputs": [
        {
          "internalType": "uint256",
          "name": "_campaignId",
          "type": "uint256"
        },
        {
          "internalType": "string",
          "name": "_supportWord",
          "type": "string"
        }
      ],
      "name": "createWordOfSupport",
      "outputs": [],
      "stateMutability": "nonpayable",
      "type": "function"
    },
    {
      "inputs": [
        {
          "internalType": "uint256",
          "name": "",
          "type": "uint256"
        },
        {
          "internalType": "uint256",
          "name": "",
          "type": "uint256"
        }
      ],
      "name": "donorsByCampaignId",
      "outputs": [
        {
          "internalType": "uint256",
          "name": "amount",
          "type": "uint256"
        },
        {
          "internalType": "uint256",
          "name": "timestamp",
          "type": "uint256"
        },
        {
          "internalType": "address",
          "name": "donorAddress",
          "type": "address"
        }
      ],
      "stateMutability": "view",
      "type": "function"
    },
    {
      "inputs": [
        {
          "internalType": "uint256",
          "name": "_campaignId",
          "type": "uint256"
        },
        {
          "internalType": "uint256",
          "name": "_amount",
          "type": "uint256"
        },
        {
          "internalType": "uint256",
          "name": "tip",
          "type": "uint256"
        }
      ],
      "name": "fundCampaign",
      "outputs": [],
      "stateMutability": "nonpayable",
      "type": "function"
    },
    {
      "inputs": [
        {
          "internalType": "uint256",
          "name": "_campaignId",
          "type": "uint256"
        }
      ],
      "name": "getCampaignUpdate",
      "outputs": [
        {
          "components": [
            {
              "internalType": "string",
              "name": "description",
              "type": "string"
            },
            {
              "internalType": "uint256",
              "name": "timestamp",
              "type": "uint256"
            }
          ],
          "internalType": "struct DataTypes.CampaignUpdate[]",
          "name": "",
          "type": "tuple[]"
        }
      ],
      "stateMutability": "view",
      "type": "function"
    },
    {
      "inputs": [],
      "name": "getCampaigns",
      "outputs": [
        {
          "components": [
            {
              "internalType": "string",
              "name": "title",
              "type": "string"
            },
            {
              "internalType": "uint256",
              "name": "campaignId",
              "type": "uint256"
            },
            {
              "internalType": "uint256",
              "name": "createdAt",
              "type": "uint256"
            },
            {
              "internalType": "uint256",
              "name": "endAt",
              "type": "uint256"
            },
            {
              "internalType": "string",
              "name": "category",
              "type": "string"
            },
            {
              "internalType": "address",
              "name": "fundraiser",
              "type": "address"
            },
            {
              "internalType": "uint256",
              "name": "goal",
              "type": "uint256"
            },
            {
              "internalType": "uint256",
              "name": "amountRaised",
              "type": "uint256"
            },
            {
              "internalType": "bool",
              "name": "claimed",
              "type": "bool"
            },
            {
              "internalType": "string",
              "name": "description",
              "type": "string"
            },
            {
              "internalType": "string",
              "name": "location",
              "type": "string"
            },
            {
              "internalType": "string",
              "name": "campaignImageUrl",
              "type": "string"
            }
          ],
          "internalType": "struct DataTypes.Campaign[]",
          "name": "",
          "type": "tuple[]"
        }
      ],
      "stateMutability": "view",
      "type": "function"
    },
    {
      "inputs": [
        {
          "internalType": "uint256",
          "name": "_campaignId",
          "type": "uint256"
        }
      ],
      "name": "getDonors",
      "outputs": [
        {
          "components": [
            {
              "internalType": "uint256",
              "name": "amount",
              "type": "uint256"
            },
            {
              "internalType": "uint256",
              "name": "timestamp",
              "type": "uint256"
            },
            {
              "internalType": "address",
              "name": "donorAddress",
              "type": "address"
            }
          ],
          "internalType": "struct DataTypes.Donor[]",
          "name": "",
          "type": "tuple[]"
        }
      ],
      "stateMutability": "view",
      "type": "function"
    },
    {
      "inputs": [
        {
          "internalType": "uint256",
          "name": "_campaignId",
          "type": "uint256"
        }
      ],
      "name": "getWordsOfSupport",
      "outputs": [
        {
          "components": [
            {
              "internalType": "string",
              "name": "supportWord",
              "type": "string"
            },
            {
              "internalType": "uint256",
              "name": "timestamp",
              "type": "uint256"
            }
          ],
          "internalType": "struct DataTypes.WordsOfSupport[]",
          "name": "",
          "type": "tuple[]"
        }
      ],
      "stateMutability": "view",
      "type": "function"
    },
    {
      "inputs": [],
      "name": "owner",
      "outputs": [
        {
          "internalType": "address",
          "name": "",
          "type": "address"
        }
      ],
      "stateMutability": "view",
      "type": "function"
    },
    {
      "inputs": [],
      "name": "renounceOwnership",
      "outputs": [],
      "stateMutability": "nonpayable",
      "type": "function"
    },
    {
      "inputs": [],
      "name": "token",
      "outputs": [
        {
          "internalType": "contract IERC20",
          "name": "",
          "type": "address"
        }
      ],
      "stateMutability": "view",
      "type": "function"
    },
    {
      "inputs": [],
      "name": "totalTip",
      "outputs": [
        {
          "internalType": "uint256",
          "name": "",
          "type": "uint256"
        }
      ],
      "stateMutability": "view",
      "type": "function"
    },
    {
      "inputs": [
        {
          "internalType": "address",
          "name": "newOwner",
          "type": "address"
        }
      ],
      "name": "transferOwnership",
      "outputs": [],
      "stateMutability": "nonpayable",
      "type": "function"
    },
    {
      "inputs": [],
      "name": "withdrawTips",
      "outputs": [],
      "stateMutability": "nonpayable",
      "type": "function"
    },
    {
      "inputs": [
        {
          "internalType": "uint256",
          "name": "",
          "type": "uint256"
        },
        {
          "internalType": "uint256",
          "name": "",
          "type": "uint256"
        }
      ],
      "name": "wordsOfSupport",
      "outputs": [
        {
          "internalType": "string",
          "name": "supportWord",
          "type": "string"
        },
        {
          "internalType": "uint256",
          "name": "timestamp",
          "type": "uint256"
        }
      ],
      "stateMutability": "view",
      "type": "function"
    }
  ],
  "bytecode": "0x60a06040523480156200001157600080fd5b5060405162002d7c38038062002d7c8339810160408190526200003491620000a1565b6200003f3362000051565b6001600160a01b0316608052620000d3565b600080546001600160a01b038381166001600160a01b0319831681178455604051919092169283917f8be0079c531659141344cd1fd0a4f28419497f9722a3daafe3b4186f6b6457e09190a35050565b600060208284031215620000b457600080fd5b81516001600160a01b0381168114620000cc57600080fd5b9392505050565b608051612c716200010b6000396000818161034a01528181610d4a01528181610ebd0152818161182601526119a00152612c716000f3fe608060405234801561001057600080fd5b50600436106101375760003560e01c806354de7386116100b85780638ed5b0fc1161007c5780638ed5b0fc146102ed578063a6b03633146102f7578063ea009d5a1461030c578063f2fde38b1461031f578063fb11400d14610332578063fc0c546a1461034557600080fd5b806354de738614610284578063561cb04a146102a457806356f88f4c146102ad578063715018a6146102c05780638da5cb5b146102c857600080fd5b806329516511116100ff5780632951651114610215578063379607f51461023557806337dcb25d146102485780633aaa74b2146102695780634573b5441461027157600080fd5b80631131b3da1461013c578063141961bc1461015157806318312224146101855780631d654359146101a5578063262dbfd0146101dc575b600080fd5b61014f61014a3660046123d2565b61036c565b005b61016461015f36600461241e565b6107c0565b60405161017c9c9b9a99989796959493929190612487565b60405180910390f35b61019861019336600461241e565b610ad2565b60405161017c9190612561565b6101b86101b33660046125c3565b610bd7565b6040805193845260208401929092526001600160a01b03169082015260600161017c565b6102076101ea366004612601565b600660209081526000928352604080842090915290825290205481565b60405190815260200161017c565b61022861022336600461241e565b610c22565b60405161017c919061262d565b61014f61024336600461241e565b610ca2565b61025b6102563660046125c3565b610da1565b60405161017c92919061268f565b61014f610e6a565b61014f61027f366004612754565b610f22565b61029761029236600461241e565b61121f565b60405161017c9190612855565b61020760025481565b61025b6102bb3660046125c3565b61132d565b61014f611349565b6000546001600160a01b03165b6040516001600160a01b03909116815260200161017c565b6001546102079081565b6102ff61135d565b60405161017c91906128aa565b61014f61031a3660046129e3565b6117ba565b61014f61032d366004612a0f565b611a0b565b61014f6103403660046123d2565b611a89565b6102d57f000000000000000000000000000000000000000000000000000000000000000081565b6000838152600360205260408082208151610180810190925280548290829061039490612a31565b80601f01602080910402602001604051908101604052809291908181526020018280546103c090612a31565b801561040d5780601f106103e25761010080835404028352916020019161040d565b820191906000526020600020905b8154815290600101906020018083116103f057829003601f168201915b5050505050815260200160018201548152602001600282015481526020016003820154815260200160048201805461044490612a31565b80601f016020809104026020016040519081016040528092919081815260200182805461047090612a31565b80156104bd5780601f10610492576101008083540402835291602001916104bd565b820191906000526020600020905b8154815290600101906020018083116104a057829003601f168201915b505050918352505060058201546001600160a01b031660208201526006820154604082015260078201546060820152600882015460ff161515608082015260098201805460a09092019161051090612a31565b80601f016020809104026020016040519081016040528092919081815260200182805461053c90612a31565b80156105895780601f1061055e57610100808354040283529160200191610589565b820191906000526020600020905b81548152906001019060200180831161056c57829003601f168201915b50505050508152602001600a820180546105a290612a31565b80601f01602080910402602001604051908101604052809291908181526020018280546105ce90612a31565b801561061b5780601f106105f05761010080835404028352916020019161061b565b820191906000526020600020905b8154815290600101906020018083116105fe57829003601f168201915b50505050508152602001600b8201805461063490612a31565b80601f016020809104026020016040519081016040528092919081815260200182805461066090612a31565b80156106ad5780601f10610682576101008083540402835291602001916106ad565b820191906000526020600020905b81548152906001019060200180831161069057829003601f168201915b5050505050815250509050428160600151116106dc57604051634e44f5c960e01b815260040160405180910390fd5b6106e68433611ee7565b61070357604051631dd56b6560e21b815260040160405180910390fd5b60046000858152602001908152602001600020604051806040016040528085858080601f01602080910402602001604051908101604052809392919081815260200183838082843760009201829052509385525050426020938401525083546001810185559381522081519192600202019081906107819082612ab9565b506020919091015160019091015560405184907fbaf151cf9922173c928bfe27357d3a883151b31a16c2d421a217824be625123990600090a250505050565b6003602052600090815260409020805481906107db90612a31565b80601f016020809104026020016040519081016040528092919081815260200182805461080790612a31565b80156108545780601f1061082957610100808354040283529160200191610854565b820191906000526020600020905b81548152906001019060200180831161083757829003601f168201915b50505050509080600101549080600201549080600301549080600401805461087b90612a31565b80601f01602080910402602001604051908101604052809291908181526020018280546108a790612a31565b80156108f45780601f106108c9576101008083540402835291602001916108f4565b820191906000526020600020905b8154815290600101906020018083116108d757829003601f168201915b505050600584015460068501546007860154600887015460098801805497986001600160a01b039095169793965091945060ff16929161093390612a31565b80601f016020809104026020016040519081016040528092919081815260200182805461095f90612a31565b80156109ac5780601f10610981576101008083540402835291602001916109ac565b820191906000526020600020905b81548152906001019060200180831161098f57829003601f168201915b50505050509080600a0180546109c190612a31565b80601f01602080910402602001604051908101604052809291908181526020018280546109ed90612a31565b8015610a3a5780601f10610a0f57610100808354040283529160200191610a3a565b820191906000526020600020905b815481529060010190602001808311610a1d57829003601f168201915b50505050509080600b018054610a4f90612a31565b80601f0160208091040260200160405190810160405280929190818152602001828054610a7b90612a31565b8015610ac85780601f10610a9d57610100808354040283529160200191610ac8565b820191906000526020600020905b815481529060010190602001808311610aab57829003601f168201915b505050505090508c565b6000818152600560209081526040808320805482518185028101850190935280835260609493849084015b82821015610bcb5783829060005260206000209060020201604051806040016040529081600082018054610b3090612a31565b80601f0160208091040260200160405190810160405280929190818152602001828054610b5c90612a31565b8015610ba95780601f10610b7e57610100808354040283529160200191610ba9565b820191906000526020600020905b815481529060010190602001808311610b8c57829003601f168201915b5050505050815260200160018201548152505081526020019060010190610afd565b50929695505050505050565b60076020528160005260406000208181548110610bf357600080fd5b60009182526020909120600390910201805460018201546002909201549093509091506001600160a01b031683565b6000818152600760209081526040808320805482518185028101850190935280835260609493849084015b82821015610bcb576000848152602090819020604080516060810182526003860290920180548352600180820154848601526002909101546001600160a01b0316918301919091529083529092019101610c4d565b600081815260036020526040902060058101546001600160a01b03163314610cdd5760405163a378562d60e01b815260040160405180910390fd5b8060030154421015610d0257604051633be80e4960e21b815260040160405180910390fd5b600881015460ff1615610d285760405163133b1da160e31b815260040160405180910390fd5b60088101805460ff191660011790556007810154610d72906001600160a01b037f000000000000000000000000000000000000000000000000000000000000000016903390611fd7565b60405182907f7bb2b3c10797baccb6f8c4791f1edd6ca2f0d028ee0eda64b01a9a57e3a653f790600090a25050565b60056020528160005260406000208181548110610dbd57600080fd5b906000526020600020906002020160009150915050806000018054610de190612a31565b80601f0160208091040260200160405190810160405280929190818152602001828054610e0d90612a31565b8015610e5a5780601f10610e2f57610100808354040283529160200191610e5a565b820191906000526020600020905b815481529060010190602001808311610e3d57829003601f168201915b5050505050908060010154905082565b610e7261203f565b33610e856000546001600160a01b031690565b6001600160a01b031614610eac57604051631fe0cd4d60e01b815260040160405180910390fd5b600254610ee5906001600160a01b037f000000000000000000000000000000000000000000000000000000000000000016903390611fd7565b7fd576c9bd3f2af7ab572fa3e05ddf577e527a6f35d4a50a1eb9ac2ae0effebe85600254604051610f1891815260200190565b60405180910390a1565b60008911610f43576040516365be81f760e01b815260040160405180910390fd5b42851015610f64576040516309ab590160e41b815260040160405180910390fd5b610f7162278d0042612b8f565b8510610f8f5760405162bfd68960e11b815260040160405180910390fd5b6000610f9a60015490565b90506040518061018001604052808881526020018281526020014281526020018781526020018d8d8080601f016020809104026020016040519081016040528093929190818152602001838380828437600081840152601f19601f820116905080830192505050505050508152602001336001600160a01b031681526020018b8152602001600081526020016000151581526020018a8a8080601f016020809104026020016040519081016040528093929190818152602001838380828437600092019190915250505090825250604080516020601f890181900481028201810190925287815291810191908890889081908401838280828437600092019190915250505090825250604080516020601f8701819004810282018101909252858152918101919086908690819084018382808284376000920182905250939094525050838152600360205260409020825190915081906110fa9082612ab9565b506020820151600182015560408201516002820155606082015160038201556080820151600482019061112d9082612ab9565b5060a08201516005820180546001600160a01b0319166001600160a01b0390921691909117905560c0820151600682015560e0820151600782015561010082015160088201805460ff191691151591909117905561012082015160098201906111969082612ab9565b50610140820151600a8201906111ac9082612ab9565b50610160820151600b8201906111c29082612ab9565b5050600180548101905550604080518b8152426020820152908101879052339082907fd2f3f78d6aef16c18a9da87bd3f55f13b902c2a7035689b0ce960ebc543645f49060600160405180910390a3505050505050505050505050565b606060046000838152602001908152602001600020805480602002602001604051908101604052809291908181526020016000905b82821015611322578382906000526020600020906002020160405180604001604052908160008201805461128790612a31565b80601f01602080910402602001604051908101604052809291908181526020018280546112b390612a31565b80156113005780601f106112d557610100808354040283529160200191611300565b820191906000526020600020905b8154815290600101906020018083116112e357829003601f168201915b5050505050815260200160018201548152505081526020019060010190611254565b505050509050919050565b60046020528160005260406000208181548110610dbd57600080fd5b61135161203f565b61135b6000612099565b565b6060600061136a60015490565b905060008167ffffffffffffffff811115611387576113876126b1565b60405190808252806020026020018201604052801561142757816020015b611414604051806101800160405280606081526020016000815260200160008152602001600081526020016060815260200160006001600160a01b0316815260200160008152602001600081526020016000151581526020016060815260200160608152602001606081525090565b8152602001906001900390816113a55790505b50905060005b828110156117b3576000818152600360205260408082208151610180810190925280548290829061145d90612a31565b80601f016020809104026020016040519081016040528092919081815260200182805461148990612a31565b80156114d65780601f106114ab576101008083540402835291602001916114d6565b820191906000526020600020905b8154815290600101906020018083116114b957829003601f168201915b5050505050815260200160018201548152602001600282015481526020016003820154815260200160048201805461150d90612a31565b80601f016020809104026020016040519081016040528092919081815260200182805461153990612a31565b80156115865780601f1061155b57610100808354040283529160200191611586565b820191906000526020600020905b81548152906001019060200180831161156957829003601f168201915b505050918352505060058201546001600160a01b031660208201526006820154604082015260078201546060820152600882015460ff161515608082015260098201805460a0909201916115d990612a31565b80601f016020809104026020016040519081016040528092919081815260200182805461160590612a31565b80156116525780601f1061162757610100808354040283529160200191611652565b820191906000526020600020905b81548152906001019060200180831161163557829003601f168201915b50505050508152602001600a8201805461166b90612a31565b80601f016020809104026020016040519081016040528092919081815260200182805461169790612a31565b80156116e45780601f106116b9576101008083540402835291602001916116e4565b820191906000526020600020905b8154815290600101906020018083116116c757829003601f168201915b50505050508152602001600b820180546116fd90612a31565b80601f016020809104026020016040519081016040528092919081815260200182805461172990612a31565b80156117765780601f1061174b57610100808354040283529160200191611776565b820191906000526020600020905b81548152906001019060200180831161175957829003601f168201915b50505050508152505090508083838151811061179457611794612ba2565b60200260200101819052505080806117ab90612bb8565b91505061142d565b5092915050565b60008381526003602081905260409091209081015442106117ee57604051634e44f5c960e01b815260040160405180910390fd5b6000831161180f5760405163f2f17a2b60e01b815260040160405180910390fd5b6040516370a0823160e01b815233600482015283907f00000000000000000000000000000000000000000000000000000000000000006001600160a01b0316906370a0823190602401602060405180830381865afa158015611875573d6000803e3d6000fd5b505050506040513d601f19601f820116820180604052508101906118999190612bd1565b116118b757604051631b4e8f5d60e31b815260040160405180910390fd5b828160070160008282546118cb9190612b8f565b90915550506000848152600660209081526040808320338452909152812080548592906118f9908490612b8f565b9250508190555081600260008282546119129190612b8f565b9091555050600084815260076020908152604080832081516060810183528781524281850190815233938201848152835460018082018655948852959096209151600390950290910193845551908301559151600290910180546001600160a01b0319166001600160a01b039092169190911790556119c890306119968587612b8f565b6001600160a01b037f0000000000000000000000000000000000000000000000000000000000000000169291906120e9565b6040805184815260208101849052339186917fbbc0e5ef5e92e3b95c46a69a2f828689cb6388e163c3265891445f95c6825f45910160405180910390a350505050565b611a1361203f565b6001600160a01b038116611a7d5760405162461bcd60e51b815260206004820152602660248201527f4f776e61626c653a206e6577206f776e657220697320746865207a65726f206160448201526564647265737360d01b60648201526084015b60405180910390fd5b611a8681612099565b50565b60008381526003602052604080822081516101808101909252805482908290611ab190612a31565b80601f0160208091040260200160405190810160405280929190818152602001828054611add90612a31565b8015611b2a5780601f10611aff57610100808354040283529160200191611b2a565b820191906000526020600020905b815481529060010190602001808311611b0d57829003601f168201915b50505050508152602001600182015481526020016002820154815260200160038201548152602001600482018054611b6190612a31565b80601f0160208091040260200160405190810160405280929190818152602001828054611b8d90612a31565b8015611bda5780601f10611baf57610100808354040283529160200191611bda565b820191906000526020600020905b815481529060010190602001808311611bbd57829003601f168201915b505050918352505060058201546001600160a01b031660208201526006820154604082015260078201546060820152600882015460ff161515608082015260098201805460a090920191611c2d90612a31565b80601f0160208091040260200160405190810160405280929190818152602001828054611c5990612a31565b8015611ca65780601f10611c7b57610100808354040283529160200191611ca6565b820191906000526020600020905b815481529060010190602001808311611c8957829003601f168201915b50505050508152602001600a82018054611cbf90612a31565b80601f0160208091040260200160405190810160405280929190818152602001828054611ceb90612a31565b8015611d385780601f10611d0d57610100808354040283529160200191611d38565b820191906000526020600020905b815481529060010190602001808311611d1b57829003601f168201915b50505050508152602001600b82018054611d5190612a31565b80601f0160208091040260200160405190810160405280929190818152602001828054611d7d90612a31565b8015611dca5780601f10611d9f57610100808354040283529160200191611dca565b820191906000526020600020905b815481529060010190602001808311611dad57829003601f168201915b50505050508152505090508060a001516001600160a01b0316336001600160a01b031614611e0b5760405163a378562d60e01b815260040160405180910390fd5b42816060015111611e2f57604051634e44f5c960e01b815260040160405180910390fd5b60008481526005602090815260409182902082516060601f8701849004909302810183018452928301858152909283929091829188908890819085018382808284376000920182905250938552505042602093840152508354600181018555938152208151919260020201908190611ea79082612ab9565b506020919091015160019091015560405185907f48a96c7abb7060bbfc035b451825837e62234a708bbf575bf0a0fb2a5e8ed1df90600090a25050505050565b600082815260076020908152604080832080548251818502810185019093528083528493849084015b82821015611f65576000848152602090819020604080516060810182526003860290920180548352600180820154848601526002909101546001600160a01b0316918301919091529083529092019101611f10565b50505050905060005b8151811015611fca57836001600160a01b0316828281518110611f9357611f93612ba2565b6020026020010151604001516001600160a01b031603611fb857600192505050611fd1565b80611fc281612bb8565b915050611f6e565b5060009150505b92915050565b6040516001600160a01b03831660248201526044810182905261203a90849063a9059cbb60e01b906064015b60408051601f198184030181529190526020810180516001600160e01b03166001600160e01b031990931692909217909152612127565b505050565b6000546001600160a01b0316331461135b5760405162461bcd60e51b815260206004820181905260248201527f4f776e61626c653a2063616c6c6572206973206e6f7420746865206f776e65726044820152606401611a74565b600080546001600160a01b038381166001600160a01b0319831681178455604051919092169283917f8be0079c531659141344cd1fd0a4f28419497f9722a3daafe3b4186f6b6457e09190a35050565b6040516001600160a01b03808516602483015283166044820152606481018290526121219085906323b872dd60e01b90608401612003565b50505050565b600061217c826040518060400160405280602081526020017f5361666545524332303a206c6f772d6c6576656c2063616c6c206661696c6564815250856001600160a01b03166121f99092919063ffffffff16565b80519091501561203a578080602001905181019061219a9190612bea565b61203a5760405162461bcd60e51b815260206004820152602a60248201527f5361666545524332303a204552433230206f7065726174696f6e20646964206e6044820152691bdd081cdd58d8d9595960b21b6064820152608401611a74565b60606122088484600085612210565b949350505050565b6060824710156122715760405162461bcd60e51b815260206004820152602660248201527f416464726573733a20696e73756666696369656e742062616c616e636520666f6044820152651c8818d85b1b60d21b6064820152608401611a74565b600080866001600160a01b0316858760405161228d9190612c0c565b60006040518083038185875af1925050503d80600081146122ca576040519150601f19603f3d011682016040523d82523d6000602084013e6122cf565b606091505b50915091506122e0878383876122eb565b979650505050505050565b6060831561235a578251600003612353576001600160a01b0385163b6123535760405162461bcd60e51b815260206004820152601d60248201527f416464726573733a2063616c6c20746f206e6f6e2d636f6e74726163740000006044820152606401611a74565b5081612208565b612208838381511561236f5781518083602001fd5b8060405162461bcd60e51b8152600401611a749190612c28565b60008083601f84011261239b57600080fd5b50813567ffffffffffffffff8111156123b357600080fd5b6020830191508360208285010111156123cb57600080fd5b9250929050565b6000806000604084860312156123e757600080fd5b83359250602084013567ffffffffffffffff81111561240557600080fd5b61241186828701612389565b9497909650939450505050565b60006020828403121561243057600080fd5b5035919050565b60005b8381101561245257818101518382015260200161243a565b50506000910152565b60008151808452612473816020860160208601612437565b601f01601f19169290920160200192915050565b6101808152600061249c61018083018f61245b565b8d60208401528c60408401528b606084015282810360808401526124c0818c61245b565b6001600160a01b038b1660a085015260c084018a905260e0840189905287151561010085015290508281036101208401526124fb818761245b565b9050828103610140840152612510818661245b565b9050828103610160840152612525818561245b565b9f9e505050505050505050505050505050565b600081516040845261254d604085018261245b565b602093840151949093019390935250919050565b6000602080830181845280855180835260408601915060408160051b870101925083870160005b828110156125b657603f198886030184526125a4858351612538565b94509285019290850190600101612588565b5092979650505050505050565b600080604083850312156125d657600080fd5b50508035926020909101359150565b80356001600160a01b03811681146125fc57600080fd5b919050565b6000806040838503121561261457600080fd5b82359150612624602084016125e5565b90509250929050565b602080825282518282018190526000919060409081850190868401855b828110156126825781518051855286810151878601528501516001600160a01b0316858501526060909301929085019060010161264a565b5091979650505050505050565b6040815260006126a2604083018561245b565b90508260208301529392505050565b634e487b7160e01b600052604160045260246000fd5b600082601f8301126126d857600080fd5b813567ffffffffffffffff808211156126f3576126f36126b1565b604051601f8301601f19908116603f0116810190828211818310171561271b5761271b6126b1565b8160405283815286602085880101111561273457600080fd5b836020870160208301376000602085830101528094505050505092915050565b600080600080600080600080600080600060e08c8e03121561277557600080fd5b67ffffffffffffffff808d35111561278c57600080fd5b6127998e8e358f01612389565b909c509a5060208d0135995060408d01358110156127b657600080fd5b6127c68e60408f01358f01612389565b909950975060608d01358110156127dc57600080fd5b6127ec8e60608f01358f016126c7565b965060808d013595508060a08e0135111561280657600080fd5b6128168e60a08f01358f01612389565b909550935060c08d013581101561282c57600080fd5b5061283d8d60c08e01358e01612389565b81935080925050509295989b509295989b9093969950565b6000602080830181845280855180835260408601915060408160051b870101925083870160005b828110156125b657603f19888603018452612898858351612538565b9450928501929085019060010161287c565b60006020808301818452808551808352604092508286019150828160051b87010184880160005b838110156129d557603f19898403018552815161018081518186526128f88287018261245b565b9150508882015189860152878201518886015260608083015181870152506080808301518683038288015261292d838261245b565b9250505060a08083015161294b828801826001600160a01b03169052565b505060c0828101519086015260e08083015190860152610100808301511515908601526101208083015186830382880152612986838261245b565b9250505061014080830151868303828801526129a2838261245b565b9250505061016080830151925085820381870152506129c1818361245b565b9689019694505050908601906001016128d1565b509098975050505050505050565b6000806000606084860312156129f857600080fd5b505081359360208301359350604090920135919050565b600060208284031215612a2157600080fd5b612a2a826125e5565b9392505050565b600181811c90821680612a4557607f821691505b602082108103612a6557634e487b7160e01b600052602260045260246000fd5b50919050565b601f82111561203a57600081815260208120601f850160051c81016020861015612a925750805b601f850160051c820191505b81811015612ab157828155600101612a9e565b505050505050565b815167ffffffffffffffff811115612ad357612ad36126b1565b612ae781612ae18454612a31565b84612a6b565b602080601f831160018114612b1c5760008415612b045750858301515b600019600386901b1c1916600185901b178555612ab1565b600085815260208120601f198616915b82811015612b4b57888601518255948401946001909101908401612b2c565b5085821015612b695787850151600019600388901b60f8161c191681555b5050505050600190811b01905550565b634e487b7160e01b600052601160045260246000fd5b80820180821115611fd157611fd1612b79565b634e487b7160e01b600052603260045260246000fd5b600060018201612bca57612bca612b79565b5060010190565b600060208284031215612be357600080fd5b5051919050565b600060208284031215612bfc57600080fd5b81518015158114612a2a57600080fd5b60008251612c1e818460208701612437565b9190910192915050565b602081526000612a2a602083018461245b56fea2646970667358221220e90f46870ca0c739b32609f048dc63db4cb2840502a4ca519ee0d4751d9c928364736f6c63430008120033",
  "linkReferences": {},
  "deployedLinkReferences": {}
}