{
    "_format": "hh-sol-artifact-1",
    "contractName": "CrowdFund",
    "sourceName": "contracts/CrowdFund.sol",
    "abi": [
        {
            "inputs": [
                {
                    "internalType": "address",
                    "name": "_address",
                    "type": "address"
                }
            ],
            "stateMutability": "nonpayable",
            "type": "constructor"
        },
        {
            "anonymous": false,
            "inputs": [
                {
                    "indexed": true,
                    "internalType": "address",
                    "name": "previousOwner",
                    "type": "address"
                },
                {
                    "indexed": true,
                    "internalType": "address",
                    "name": "newOwner",
                    "type": "address"
                }
            ],
            "name": "OwnershipTransferred",
            "type": "event"
        },
        {
            "inputs": [
                {
                    "internalType": "uint256",
                    "name": "",
                    "type": "uint256"
                },
                {
                    "internalType": "address",
                    "name": "",
                    "type": "address"
                }
            ],
            "name": "amountFundedByCampaignId",
            "outputs": [
                {
                    "internalType": "uint256",
                    "name": "",
                    "type": "uint256"
                }
            ],
            "stateMutability": "view",
            "type": "function"
        },
        {
            "inputs": [],
            "name": "campaignId",
            "outputs": [
                {
                    "internalType": "uint256",
                    "name": "_value",
                    "type": "uint256"
                }
            ],
            "stateMutability": "view",
            "type": "function"
        },
        {
            "inputs": [
                {
                    "internalType": "uint256",
                    "name": "",
                    "type": "uint256"
                },
                {
                    "internalType": "uint256",
                    "name": "",
                    "type": "uint256"
                }
            ],
            "name": "campaignUpdates",
            "outputs": [
                {
                    "internalType": "string",
                    "name": "description",
                    "type": "string"
                },
                {
                    "internalType": "uint256",
                    "name": "timestamp",
                    "type": "uint256"
                }
            ],
            "stateMutability": "view",
            "type": "function"
        },
        {
            "inputs": [
                {
                    "internalType": "uint256",
                    "name": "",
                    "type": "uint256"
                }
            ],
            "name": "campaigns",
            "outputs": [
                {
                    "internalType": "uint256",
                    "name": "campaignId",
                    "type": "uint256"
                },
                {
                    "internalType": "uint256",
                    "name": "startAt",
                    "type": "uint256"
                },
                {
                    "internalType": "uint256",
                    "name": "endAt",
                    "type": "uint256"
                },
                {
                    "internalType": "string",
                    "name": "category",
                    "type": "string"
                },
                {
                    "internalType": "address",
                    "name": "fundraiser",
                    "type": "address"
                },
                {
                    "internalType": "uint256",
                    "name": "goal",
                    "type": "uint256"
                },
                {
                    "internalType": "uint256",
                    "name": "amountRaised",
                    "type": "uint256"
                },
                {
                    "internalType": "bool",
                    "name": "claimed",
                    "type": "bool"
                },
                {
                    "internalType": "string",
                    "name": "description",
                    "type": "string"
                },
                {
                    "internalType": "string",
                    "name": "location",
                    "type": "string"
                },
                {
                    "internalType": "string",
                    "name": "campaignImageUrl",
                    "type": "string"
                }
            ],
            "stateMutability": "view",
            "type": "function"
        },
        {
            "inputs": [
                {
                    "internalType": "uint256",
                    "name": "_campaignId",
                    "type": "uint256"
                }
            ],
            "name": "cancelCampaign",
            "outputs": [],
            "stateMutability": "nonpayable",
            "type": "function"
        },
        {
            "inputs": [
                {
                    "internalType": "uint256",
                    "name": "_campaignId",
                    "type": "uint256"
                }
            ],
            "name": "claim",
            "outputs": [],
            "stateMutability": "nonpayable",
            "type": "function"
        },
        {
            "inputs": [
                {
                    "internalType": "string",
                    "name": "_category",
                    "type": "string"
                },
                {
                    "internalType": "uint256",
                    "name": "_goal",
                    "type": "uint256"
                },
                {
                    "internalType": "string",
                    "name": "_description",
                    "type": "string"
                },
                {
                    "internalType": "uint256",
                    "name": "_startAt",
                    "type": "uint256"
                },
                {
                    "internalType": "uint256",
                    "name": "_endAt",
                    "type": "uint256"
                },
                {
                    "internalType": "string",
                    "name": "_location",
                    "type": "string"
                },
                {
                    "internalType": "string",
                    "name": "_campaignImageUrl",
                    "type": "string"
                }
            ],
            "name": "createCampaign",
            "outputs": [],
            "stateMutability": "nonpayable",
            "type": "function"
        },
        {
            "inputs": [
                {
                    "internalType": "uint256",
                    "name": "_campaignId",
                    "type": "uint256"
                },
                {
                    "internalType": "string",
                    "name": "_description",
                    "type": "string"
                }
            ],
            "name": "createCampaignUpdate",
            "outputs": [],
            "stateMutability": "nonpayable",
            "type": "function"
        },
        {
            "inputs": [
                {
                    "internalType": "uint256",
                    "name": "",
                    "type": "uint256"
                },
                {
                    "internalType": "uint256",
                    "name": "",
                    "type": "uint256"
                }
            ],
            "name": "donorsByCampaignId",
            "outputs": [
                {
                    "internalType": "uint256",
                    "name": "amount",
                    "type": "uint256"
                },
                {
                    "internalType": "uint256",
                    "name": "timestamp",
                    "type": "uint256"
                },
                {
                    "internalType": "address",
                    "name": "donorAddress",
                    "type": "address"
                }
            ],
            "stateMutability": "view",
            "type": "function"
        },
        {
            "inputs": [
                {
                    "internalType": "uint256",
                    "name": "_campaignId",
                    "type": "uint256"
                },
                {
                    "internalType": "uint256",
                    "name": "_amount",
                    "type": "uint256"
                },
                {
                    "internalType": "uint256",
                    "name": "tip",
                    "type": "uint256"
                }
            ],
            "name": "fundCampaign",
            "outputs": [],
            "stateMutability": "nonpayable",
            "type": "function"
        },
        {
            "inputs": [
                {
                    "internalType": "uint256",
                    "name": "_campaignId",
                    "type": "uint256"
                }
            ],
            "name": "getCampaignUpdate",
            "outputs": [
                {
                    "components": [
                        {
                            "internalType": "string",
                            "name": "description",
                            "type": "string"
                        },
                        {
                            "internalType": "uint256",
                            "name": "timestamp",
                            "type": "uint256"
                        }
                    ],
                    "internalType": "struct DataTypes.CampaignUpdate[]",
                    "name": "",
                    "type": "tuple[]"
                }
            ],
            "stateMutability": "view",
            "type": "function"
        },
        {
            "inputs": [],
            "name": "getCampaigns",
            "outputs": [
                {
                    "components": [
                        {
                            "internalType": "uint256",
                            "name": "campaignId",
                            "type": "uint256"
                        },
                        {
                            "internalType": "uint256",
                            "name": "startAt",
                            "type": "uint256"
                        },
                        {
                            "internalType": "uint256",
                            "name": "endAt",
                            "type": "uint256"
                        },
                        {
                            "internalType": "string",
                            "name": "category",
                            "type": "string"
                        },
                        {
                            "internalType": "address",
                            "name": "fundraiser",
                            "type": "address"
                        },
                        {
                            "internalType": "uint256",
                            "name": "goal",
                            "type": "uint256"
                        },
                        {
                            "internalType": "uint256",
                            "name": "amountRaised",
                            "type": "uint256"
                        },
                        {
                            "internalType": "bool",
                            "name": "claimed",
                            "type": "bool"
                        },
                        {
                            "internalType": "string",
                            "name": "description",
                            "type": "string"
                        },
                        {
                            "internalType": "string",
                            "name": "location",
                            "type": "string"
                        },
                        {
                            "internalType": "string",
                            "name": "campaignImageUrl",
                            "type": "string"
                        }
                    ],
                    "internalType": "struct DataTypes.Campaign[]",
                    "name": "",
                    "type": "tuple[]"
                }
            ],
            "stateMutability": "view",
            "type": "function"
        },
        {
            "inputs": [
                {
                    "internalType": "uint256",
                    "name": "_campaignId",
                    "type": "uint256"
                }
            ],
            "name": "getDonors",
            "outputs": [
                {
                    "components": [
                        {
                            "internalType": "uint256",
                            "name": "amount",
                            "type": "uint256"
                        },
                        {
                            "internalType": "uint256",
                            "name": "timestamp",
                            "type": "uint256"
                        },
                        {
                            "internalType": "address",
                            "name": "donorAddress",
                            "type": "address"
                        }
                    ],
                    "internalType": "struct DataTypes.Donor[]",
                    "name": "",
                    "type": "tuple[]"
                }
            ],
            "stateMutability": "view",
            "type": "function"
        },
        {
            "inputs": [],
            "name": "owner",
            "outputs": [
                {
                    "internalType": "address",
                    "name": "",
                    "type": "address"
                }
            ],
            "stateMutability": "view",
            "type": "function"
        },
        {
            "inputs": [],
            "name": "renounceOwnership",
            "outputs": [],
            "stateMutability": "nonpayable",
            "type": "function"
        },
        {
            "inputs": [],
            "name": "token",
            "outputs": [
                {
                    "internalType": "contract IERC20",
                    "name": "",
                    "type": "address"
                }
            ],
            "stateMutability": "view",
            "type": "function"
        },
        {
            "inputs": [],
            "name": "totalTip",
            "outputs": [
                {
                    "internalType": "uint256",
                    "name": "",
                    "type": "uint256"
                }
            ],
            "stateMutability": "view",
            "type": "function"
        },
        {
            "inputs": [
                {
                    "internalType": "address",
                    "name": "newOwner",
                    "type": "address"
                }
            ],
            "name": "transferOwnership",
            "outputs": [],
            "stateMutability": "nonpayable",
            "type": "function"
        },
        {
            "inputs": [],
            "name": "withdrawTips",
            "outputs": [],
            "stateMutability": "nonpayable",
            "type": "function"
        },
        {
            "inputs": [
                {
                    "internalType": "uint256",
                    "name": "",
                    "type": "uint256"
                },
                {
                    "internalType": "uint256",
                    "name": "",
                    "type": "uint256"
                }
            ],
            "name": "wordsOfSupport",
            "outputs": [
                {
                    "internalType": "uint256",
                    "name": "campaignId",
                    "type": "uint256"
                },
                {
                    "internalType": "string",
                    "name": "supportWord",
                    "type": "string"
                }
            ],
            "stateMutability": "view",
            "type": "function"
        }
    ],
    "bytecode": "0x60a06040523480156200001157600080fd5b5060405162004585380380620045858339818101604052810190620000379190620001c8565b620000576200004b6200009260201b60201c565b6200009a60201b60201c565b8073ffffffffffffffffffffffffffffffffffffffff1660808173ffffffffffffffffffffffffffffffffffffffff168152505050620001fa565b600033905090565b60008060009054906101000a900473ffffffffffffffffffffffffffffffffffffffff169050816000806101000a81548173ffffffffffffffffffffffffffffffffffffffff021916908373ffffffffffffffffffffffffffffffffffffffff1602179055508173ffffffffffffffffffffffffffffffffffffffff168173ffffffffffffffffffffffffffffffffffffffff167f8be0079c531659141344cd1fd0a4f28419497f9722a3daafe3b4186f6b6457e060405160405180910390a35050565b600080fd5b600073ffffffffffffffffffffffffffffffffffffffff82169050919050565b6000620001908262000163565b9050919050565b620001a28162000183565b8114620001ae57600080fd5b50565b600081519050620001c28162000197565b92915050565b600060208284031215620001e157620001e06200015e565b5b6000620001f184828501620001b1565b91505092915050565b6080516143536200023260003960008181610e860152818161104a01528181611b3901528181611d8a01526123a901526143536000f3fe608060405234801561001057600080fd5b506004361061012c5760003560e01c8063561cb04a116100ad578063a6b0363311610071578063a6b0363314610351578063ea009d5a1461036f578063f2fde38b1461038b578063fb11400d146103a7578063fc0c546a146103c35761012c565b8063561cb04a146102bc57806356f88f4c146102da578063715018a61461030b5780638da5cb5b146103155780638ed5b0fc146103335761012c565b806329516511116100f45780632951651114610219578063379607f51461024957806337dcb25d146102655780633aaa74b21461029657806345598b4a146102a05761012c565b806312eb841214610131578063141961bc1461014d57806318312224146101875780631d654359146101b7578063262dbfd0146101e9575b600080fd5b61014b60048036038101906101469190612a50565b6103e1565b005b61016760048036038101906101629190612b74565b6107f4565b60405161017e9b9a99989796959493929190612c9c565b60405180910390f35b6101a1600480360381019061019c9190612b74565b610a9b565b6040516101ae9190612ebb565b60405180910390f35b6101d160048036038101906101cc9190612edd565b610baf565b6040516101e093929190612f1d565b60405180910390f35b61020360048036038101906101fe9190612f80565b610c16565b6040516102109190612fc0565b60405180910390f35b610233600480360381019061022e9190612b74565b610c3b565b60405161024091906130db565b60405180910390f35b610263600480360381019061025e9190612b74565b610d1d565b005b61027f600480360381019061027a9190612edd565b610efb565b60405161028d9291906130fd565b60405180910390f35b61029e610fc4565b005b6102ba60048036038101906102b59190612b74565b6110c9565b005b6102c4611579565b6040516102d19190612fc0565b60405180910390f35b6102f460048036038101906102ef9190612edd565b61157f565b60405161030292919061312d565b60405180910390f35b610313611648565b005b61031d61165c565b60405161032a919061315d565b60405180910390f35b61033b611685565b6040516103489190612fc0565b60405180910390f35b610359611691565b604051610366919061334d565b60405180910390f35b6103896004803603810190610384919061336f565b611a4e565b005b6103a560048036038101906103a091906133c2565b611e26565b005b6103c160048036038101906103bc91906133ef565b611ea9565b005b6103cb6123a7565b6040516103d891906134ae565b60405180910390f35b6000891015610425576040517f08c379a000000000000000000000000000000000000000000000000000000000815260040161041c90613515565b60405180910390fd5b42861015610468576040517f08c379a000000000000000000000000000000000000000000000000000000000815260040161045f90613581565b60405180910390fd5b8585116104aa576040517f08c379a00000000000000000000000000000000000000000000000000000000081526004016104a1906135ed565b60405180910390fd5b62278d00426104b9919061363c565b8511156104fb576040517f08c379a00000000000000000000000000000000000000000000000000000000081526004016104f2906136e2565b60405180910390fd5b600061050760016123cb565b90506040518061016001604052808281526020018881526020018781526020018d8d8080601f016020809104026020016040519081016040528093929190818152602001838380828437600081840152601f19601f8201169050808301925050505050505081526020013373ffffffffffffffffffffffffffffffffffffffff1681526020018b8152602001600081526020016000151581526020018a8a8080601f016020809104026020016040519081016040528093929190818152602001838380828437600081840152601f19601f82011690508083019250505050505050815260200186868080601f016020809104026020016040519081016040528093929190818152602001838380828437600081840152601f19601f82011690508083019250505050505050815260200184848080601f016020809104026020016040519081016040528093929190818152602001838380828437600081840152601f19601f820116905080830192505050505050508152506003600083815260200190815260200160002060008201518160000155602082015181600101556040820151816002015560608201518160030190816106c59190613933565b5060808201518160040160006101000a81548173ffffffffffffffffffffffffffffffffffffffff021916908373ffffffffffffffffffffffffffffffffffffffff16021790555060a0820151816005015560c0820151816006015560e08201518160070160006101000a81548160ff0219169083151502179055506101008201518160080190816107579190613933565b5061012082015181600901908161076e9190613933565b5061014082015181600a0190816107859190613933565b5090505061079360016123d9565b3373ffffffffffffffffffffffffffffffffffffffff16817fd2f3f78d6aef16c18a9da87bd3f55f13b902c2a7035689b0ce960ebc543645f48c8a8a6040516107de93929190613a05565b60405180910390a3505050505050505050505050565b600360205280600052604060002060009150905080600001549080600101549080600201549080600301805461082990613760565b80601f016020809104026020016040519081016040528092919081815260200182805461085590613760565b80156108a25780601f10610877576101008083540402835291602001916108a2565b820191906000526020600020905b81548152906001019060200180831161088557829003601f168201915b5050505050908060040160009054906101000a900473ffffffffffffffffffffffffffffffffffffffff16908060050154908060060154908060070160009054906101000a900460ff16908060080180546108fc90613760565b80601f016020809104026020016040519081016040528092919081815260200182805461092890613760565b80156109755780601f1061094a57610100808354040283529160200191610975565b820191906000526020600020905b81548152906001019060200180831161095857829003601f168201915b50505050509080600901805461098a90613760565b80601f01602080910402602001604051908101604052809291908181526020018280546109b690613760565b8015610a035780601f106109d857610100808354040283529160200191610a03565b820191906000526020600020905b8154815290600101906020018083116109e657829003601f168201915b50505050509080600a018054610a1890613760565b80601f0160208091040260200160405190810160405280929190818152602001828054610a4490613760565b8015610a915780601f10610a6657610100808354040283529160200191610a91565b820191906000526020600020905b815481529060010190602001808311610a7457829003601f168201915b505050505090508b565b6060600060056000848152602001908152602001600020805480602002602001604051908101604052809291908181526020016000905b82821015610ba05783829060005260206000209060020201604051806040016040529081600082018054610b0590613760565b80601f0160208091040260200160405190810160405280929190818152602001828054610b3190613760565b8015610b7e5780601f10610b5357610100808354040283529160200191610b7e565b820191906000526020600020905b815481529060010190602001808311610b6157829003601f168201915b5050505050815260200160018201548152505081526020019060010190610ad2565b50505050905080915050919050565b60076020528160005260406000208181548110610bcb57600080fd5b9060005260206000209060030201600091509150508060000154908060010154908060020160009054906101000a900473ffffffffffffffffffffffffffffffffffffffff16905083565b6006602052816000526040600020602052806000526040600020600091509150505481565b6060600060076000848152602001908152602001600020805480602002602001604051908101604052809291908181526020016000905b82821015610d0e578382906000526020600020906003020160405180606001604052908160008201548152602001600182015481526020016002820160009054906101000a900473ffffffffffffffffffffffffffffffffffffffff1673ffffffffffffffffffffffffffffffffffffffff1673ffffffffffffffffffffffffffffffffffffffff168152505081526020019060010190610c72565b50505050905080915050919050565b60006003600083815260200190815260200160002090508060040160009054906101000a900473ffffffffffffffffffffffffffffffffffffffff1673ffffffffffffffffffffffffffffffffffffffff163373ffffffffffffffffffffffffffffffffffffffff1614610dc6576040517f08c379a0000000000000000000000000000000000000000000000000000000008152600401610dbd90613a88565b60405180910390fd5b80600201544211610e0c576040517f08c379a0000000000000000000000000000000000000000000000000000000008152600401610e0390613af4565b60405180910390fd5b8060070160009054906101000a900460ff1615610e5e576040517f08c379a0000000000000000000000000000000000000000000000000000000008152600401610e5590613b60565b60405180910390fd5b60018160070160006101000a81548160ff021916908315150217905550610eca3382600601547f000000000000000000000000000000000000000000000000000000000000000073ffffffffffffffffffffffffffffffffffffffff166123ef9092919063ffffffff16565b817f7bb2b3c10797baccb6f8c4791f1edd6ca2f0d028ee0eda64b01a9a57e3a653f760405160405180910390a25050565b60056020528160005260406000208181548110610f1757600080fd5b906000526020600020906002020160009150915050806000018054610f3b90613760565b80601f0160208091040260200160405190810160405280929190818152602001828054610f6790613760565b8015610fb45780601f10610f8957610100808354040283529160200191610fb4565b820191906000526020600020905b815481529060010190602001808311610f9757829003601f168201915b5050505050908060010154905082565b610fcc612475565b3373ffffffffffffffffffffffffffffffffffffffff16610feb61165c565b73ffffffffffffffffffffffffffffffffffffffff1614611041576040517f08c379a000000000000000000000000000000000000000000000000000000000815260040161103890613bcc565b60405180910390fd5b61108e336002547f000000000000000000000000000000000000000000000000000000000000000073ffffffffffffffffffffffffffffffffffffffff166123ef9092919063ffffffff16565b7fd576c9bd3f2af7ab572fa3e05ddf577e527a6f35d4a50a1eb9ac2ae0effebe856002546040516110bf9190612fc0565b60405180910390a1565b6000600360008381526020019081526020016000206040518061016001604052908160008201548152602001600182015481526020016002820154815260200160038201805461111890613760565b80601f016020809104026020016040519081016040528092919081815260200182805461114490613760565b80156111915780601f1061116657610100808354040283529160200191611191565b820191906000526020600020905b81548152906001019060200180831161117457829003601f168201915b505050505081526020016004820160009054906101000a900473ffffffffffffffffffffffffffffffffffffffff1673ffffffffffffffffffffffffffffffffffffffff1673ffffffffffffffffffffffffffffffffffffffff16815260200160058201548152602001600682015481526020016007820160009054906101000a900460ff1615151515815260200160088201805461122f90613760565b80601f016020809104026020016040519081016040528092919081815260200182805461125b90613760565b80156112a85780601f1061127d576101008083540402835291602001916112a8565b820191906000526020600020905b81548152906001019060200180831161128b57829003601f168201915b505050505081526020016009820180546112c190613760565b80601f01602080910402602001604051908101604052809291908181526020018280546112ed90613760565b801561133a5780601f1061130f5761010080835404028352916020019161133a565b820191906000526020600020905b81548152906001019060200180831161131d57829003601f168201915b50505050508152602001600a8201805461135390613760565b80601f016020809104026020016040519081016040528092919081815260200182805461137f90613760565b80156113cc5780601f106113a1576101008083540402835291602001916113cc565b820191906000526020600020905b8154815290600101906020018083116113af57829003601f168201915b5050505050815250509050806080015173ffffffffffffffffffffffffffffffffffffffff163373ffffffffffffffffffffffffffffffffffffffff1614611449576040517f08c379a000000000000000000000000000000000000000000000000000000000815260040161144090613a88565b60405180910390fd5b8060200151421061148f576040517f08c379a000000000000000000000000000000000000000000000000000000000815260040161148690613c38565b60405180910390fd5b60036000838152602001908152602001600020600080820160009055600182016000905560028201600090556003820160006114cb91906128dc565b6004820160006101000a81549073ffffffffffffffffffffffffffffffffffffffff0219169055600582016000905560068201600090556007820160006101000a81549060ff021916905560088201600061152691906128dc565b60098201600061153691906128dc565b600a8201600061154691906128dc565b5050817ff5126d94294580c6b6461359fff83f8d78f67eaab6e1b834f8d9f2c2e1dbc73460405160405180910390a25050565b60025481565b6004602052816000526040600020818154811061159b57600080fd5b9060005260206000209060020201600091509150508060000154908060010180546115c590613760565b80601f01602080910402602001604051908101604052809291908181526020018280546115f190613760565b801561163e5780601f106116135761010080835404028352916020019161163e565b820191906000526020600020905b81548152906001019060200180831161162157829003601f168201915b5050505050905082565b611650612475565b61165a60006124f3565b565b60008060009054906101000a900473ffffffffffffffffffffffffffffffffffffffff16905090565b60018060000154905081565b6060600061169f60016123cb565b905060008167ffffffffffffffff8111156116bd576116bc613702565b5b6040519080825280602002602001820160405280156116f657816020015b6116e361291c565b8152602001906001900390816116db5790505b50905060005b82811015611a45576000600360008381526020019081526020016000206040518061016001604052908160008201548152602001600182015481526020016002820154815260200160038201805461175390613760565b80601f016020809104026020016040519081016040528092919081815260200182805461177f90613760565b80156117cc5780601f106117a1576101008083540402835291602001916117cc565b820191906000526020600020905b8154815290600101906020018083116117af57829003601f168201915b505050505081526020016004820160009054906101000a900473ffffffffffffffffffffffffffffffffffffffff1673ffffffffffffffffffffffffffffffffffffffff1673ffffffffffffffffffffffffffffffffffffffff16815260200160058201548152602001600682015481526020016007820160009054906101000a900460ff1615151515815260200160088201805461186a90613760565b80601f016020809104026020016040519081016040528092919081815260200182805461189690613760565b80156118e35780601f106118b8576101008083540402835291602001916118e3565b820191906000526020600020905b8154815290600101906020018083116118c657829003601f168201915b505050505081526020016009820180546118fc90613760565b80601f016020809104026020016040519081016040528092919081815260200182805461192890613760565b80156119755780601f1061194a57610100808354040283529160200191611975565b820191906000526020600020905b81548152906001019060200180831161195857829003601f168201915b50505050508152602001600a8201805461198e90613760565b80601f01602080910402602001604051908101604052809291908181526020018280546119ba90613760565b8015611a075780601f106119dc57610100808354040283529160200191611a07565b820191906000526020600020905b8154815290600101906020018083116119ea57829003601f168201915b505050505081525050905080838381518110611a2657611a25613c58565b5b6020026020010181905250508080611a3d90613c87565b9150506116fc565b50809250505090565b60006003600085815260200190815260200160002090504281600101541115611aac576040517f08c379a0000000000000000000000000000000000000000000000000000000008152600401611aa390613d1b565b60405180910390fd5b4281600201541015611af3576040517f08c379a0000000000000000000000000000000000000000000000000000000008152600401611aea90613d87565b60405180910390fd5b60008311611b36576040517f08c379a0000000000000000000000000000000000000000000000000000000008152600401611b2d90613df3565b60405180910390fd5b827f000000000000000000000000000000000000000000000000000000000000000073ffffffffffffffffffffffffffffffffffffffff166370a08231336040518263ffffffff1660e01b8152600401611b90919061315d565b602060405180830381865afa158015611bad573d6000803e3d6000fd5b505050506040513d601f19601f82011682018060405250810190611bd19190613e28565b1015611c12576040517f08c379a0000000000000000000000000000000000000000000000000000000008152600401611c0990613ea1565b60405180910390fd5b82816006016000828254611c26919061363c565b92505081905550826006600086815260200190815260200160002060003373ffffffffffffffffffffffffffffffffffffffff1673ffffffffffffffffffffffffffffffffffffffff1681526020019081526020016000206000828254611c8d919061363c565b925050819055508160026000828254611ca6919061363c565b925050819055506007600085815260200190815260200160002060405180606001604052808581526020014281526020013373ffffffffffffffffffffffffffffffffffffffff168152509080600181540180825580915050600190039060005260206000209060030201600090919091909150600082015181600001556020820151816001015560408201518160020160006101000a81548173ffffffffffffffffffffffffffffffffffffffff021916908373ffffffffffffffffffffffffffffffffffffffff1602179055505050611dcf33308486611d88919061363c565b7f000000000000000000000000000000000000000000000000000000000000000073ffffffffffffffffffffffffffffffffffffffff166125b7909392919063ffffffff16565b3373ffffffffffffffffffffffffffffffffffffffff16847fbbc0e5ef5e92e3b95c46a69a2f828689cb6388e163c3265891445f95c6825f458585604051611e18929190613ec1565b60405180910390a350505050565b611e2e612475565b600073ffffffffffffffffffffffffffffffffffffffff168173ffffffffffffffffffffffffffffffffffffffff1603611e9d576040517f08c379a0000000000000000000000000000000000000000000000000000000008152600401611e9490613f5c565b60405180910390fd5b611ea6816124f3565b50565b60006003600085815260200190815260200160002060405180610160016040529081600082015481526020016001820154815260200160028201548152602001600382018054611ef890613760565b80601f0160208091040260200160405190810160405280929190818152602001828054611f2490613760565b8015611f715780601f10611f4657610100808354040283529160200191611f71565b820191906000526020600020905b815481529060010190602001808311611f5457829003601f168201915b505050505081526020016004820160009054906101000a900473ffffffffffffffffffffffffffffffffffffffff1673ffffffffffffffffffffffffffffffffffffffff1673ffffffffffffffffffffffffffffffffffffffff16815260200160058201548152602001600682015481526020016007820160009054906101000a900460ff1615151515815260200160088201805461200f90613760565b80601f016020809104026020016040519081016040528092919081815260200182805461203b90613760565b80156120885780601f1061205d57610100808354040283529160200191612088565b820191906000526020600020905b81548152906001019060200180831161206b57829003601f168201915b505050505081526020016009820180546120a190613760565b80601f01602080910402602001604051908101604052809291908181526020018280546120cd90613760565b801561211a5780601f106120ef5761010080835404028352916020019161211a565b820191906000526020600020905b8154815290600101906020018083116120fd57829003601f168201915b50505050508152602001600a8201805461213390613760565b80601f016020809104026020016040519081016040528092919081815260200182805461215f90613760565b80156121ac5780601f10612181576101008083540402835291602001916121ac565b820191906000526020600020905b81548152906001019060200180831161218f57829003601f168201915b5050505050815250509050806080015173ffffffffffffffffffffffffffffffffffffffff163373ffffffffffffffffffffffffffffffffffffffff1614612229576040517f08c379a000000000000000000000000000000000000000000000000000000000815260040161222090613fc8565b60405180910390fd5b4281602001511115612270576040517f08c379a000000000000000000000000000000000000000000000000000000000815260040161226790613d1b565b60405180910390fd5b42816040015110156122b7576040517f08c379a00000000000000000000000000000000000000000000000000000000081526004016122ae90613d87565b60405180910390fd5b600060056000868152602001908152602001600020905080604051806040016040528086868080601f016020809104026020016040519081016040528093929190818152602001838380828437600081840152601f19601f82011690508083019250505050505050815260200142815250908060018154018082558091505060019003906000526020600020906002020160009091909190915060008201518160000190816123669190613933565b50602082015181600101555050847f48a96c7abb7060bbfc035b451825837e62234a708bbf575bf0a0fb2a5e8ed1df60405160405180910390a25050505050565b7f000000000000000000000000000000000000000000000000000000000000000081565b600081600001549050919050565b6001816000016000828254019250508190555050565b6124708363a9059cbb60e01b848460405160240161240e929190613fe8565b604051602081830303815290604052907bffffffffffffffffffffffffffffffffffffffffffffffffffffffff19166020820180517bffffffffffffffffffffffffffffffffffffffffffffffffffffffff8381831617835250505050612640565b505050565b61247d612707565b73ffffffffffffffffffffffffffffffffffffffff1661249b61165c565b73ffffffffffffffffffffffffffffffffffffffff16146124f1576040517f08c379a00000000000000000000000000000000000000000000000000000000081526004016124e89061405d565b60405180910390fd5b565b60008060009054906101000a900473ffffffffffffffffffffffffffffffffffffffff169050816000806101000a81548173ffffffffffffffffffffffffffffffffffffffff021916908373ffffffffffffffffffffffffffffffffffffffff1602179055508173ffffffffffffffffffffffffffffffffffffffff168173ffffffffffffffffffffffffffffffffffffffff167f8be0079c531659141344cd1fd0a4f28419497f9722a3daafe3b4186f6b6457e060405160405180910390a35050565b61263a846323b872dd60e01b8585856040516024016125d89392919061407d565b604051602081830303815290604052907bffffffffffffffffffffffffffffffffffffffffffffffffffffffff19166020820180517bffffffffffffffffffffffffffffffffffffffffffffffffffffffff8381831617835250505050612640565b50505050565b60006126a2826040518060400160405280602081526020017f5361666545524332303a206c6f772d6c6576656c2063616c6c206661696c65648152508573ffffffffffffffffffffffffffffffffffffffff1661270f9092919063ffffffff16565b905060008151111561270257808060200190518101906126c291906140e0565b612701576040517f08c379a00000000000000000000000000000000000000000000000000000000081526004016126f89061417f565b60405180910390fd5b5b505050565b600033905090565b606061271e8484600085612727565b90509392505050565b60608247101561276c576040517f08c379a000000000000000000000000000000000000000000000000000000000815260040161276390614211565b60405180910390fd5b6000808673ffffffffffffffffffffffffffffffffffffffff1685876040516127959190614278565b60006040518083038185875af1925050503d80600081146127d2576040519150601f19603f3d011682016040523d82523d6000602084013e6127d7565b606091505b50915091506127e8878383876127f4565b92505050949350505050565b6060831561285657600083510361284e5761280e85612869565b61284d576040517f08c379a0000000000000000000000000000000000000000000000000000000008152600401612844906142db565b60405180910390fd5b5b829050612861565b612860838361288c565b5b949350505050565b6000808273ffffffffffffffffffffffffffffffffffffffff163b119050919050565b60008251111561289f5781518083602001fd5b806040517f08c379a00000000000000000000000000000000000000000000000000000000081526004016128d391906142fb565b60405180910390fd5b5080546128e890613760565b6000825580601f106128fa5750612919565b601f016020900490600052602060002090810190612918919061298e565b5b50565b60405180610160016040528060008152602001600081526020016000815260200160608152602001600073ffffffffffffffffffffffffffffffffffffffff16815260200160008152602001600081526020016000151581526020016060815260200160608152602001606081525090565b5b808211156129a757600081600090555060010161298f565b5090565b600080fd5b600080fd5b600080fd5b600080fd5b600080fd5b60008083601f8401126129da576129d96129b5565b5b8235905067ffffffffffffffff8111156129f7576129f66129ba565b5b602083019150836001820283011115612a1357612a126129bf565b5b9250929050565b6000819050919050565b612a2d81612a1a565b8114612a3857600080fd5b50565b600081359050612a4a81612a24565b92915050565b600080600080600080600080600080600060e08c8e031215612a7557612a746129ab565b5b60008c013567ffffffffffffffff811115612a9357612a926129b0565b5b612a9f8e828f016129c4565b9b509b50506020612ab28e828f01612a3b565b99505060408c013567ffffffffffffffff811115612ad357612ad26129b0565b5b612adf8e828f016129c4565b98509850506060612af28e828f01612a3b565b9650506080612b038e828f01612a3b565b95505060a08c013567ffffffffffffffff811115612b2457612b236129b0565b5b612b308e828f016129c4565b945094505060c08c013567ffffffffffffffff811115612b5357612b526129b0565b5b612b5f8e828f016129c4565b92509250509295989b509295989b9093969950565b600060208284031215612b8a57612b896129ab565b5b6000612b9884828501612a3b565b91505092915050565b612baa81612a1a565b82525050565b600081519050919050565b600082825260208201905092915050565b60005b83811015612bea578082015181840152602081019050612bcf565b60008484015250505050565b6000601f19601f8301169050919050565b6000612c1282612bb0565b612c1c8185612bbb565b9350612c2c818560208601612bcc565b612c3581612bf6565b840191505092915050565b600073ffffffffffffffffffffffffffffffffffffffff82169050919050565b6000612c6b82612c40565b9050919050565b612c7b81612c60565b82525050565b60008115159050919050565b612c9681612c81565b82525050565b600061016082019050612cb2600083018e612ba1565b612cbf602083018d612ba1565b612ccc604083018c612ba1565b8181036060830152612cde818b612c07565b9050612ced608083018a612c72565b612cfa60a0830189612ba1565b612d0760c0830188612ba1565b612d1460e0830187612c8d565b818103610100830152612d278186612c07565b9050818103610120830152612d3c8185612c07565b9050818103610140830152612d518184612c07565b90509c9b505050505050505050505050565b600081519050919050565b600082825260208201905092915050565b6000819050602082019050919050565b600082825260208201905092915050565b6000612dab82612bb0565b612db58185612d8f565b9350612dc5818560208601612bcc565b612dce81612bf6565b840191505092915050565b612de281612a1a565b82525050565b60006040830160008301518482036000860152612e058282612da0565b9150506020830151612e1a6020860182612dd9565b508091505092915050565b6000612e318383612de8565b905092915050565b6000602082019050919050565b6000612e5182612d63565b612e5b8185612d6e565b935083602082028501612e6d85612d7f565b8060005b85811015612ea95784840389528151612e8a8582612e25565b9450612e9583612e39565b925060208a01995050600181019050612e71565b50829750879550505050505092915050565b60006020820190508181036000830152612ed58184612e46565b905092915050565b60008060408385031215612ef457612ef36129ab565b5b6000612f0285828601612a3b565b9250506020612f1385828601612a3b565b9150509250929050565b6000606082019050612f326000830186612ba1565b612f3f6020830185612ba1565b612f4c6040830184612c72565b949350505050565b612f5d81612c60565b8114612f6857600080fd5b50565b600081359050612f7a81612f54565b92915050565b60008060408385031215612f9757612f966129ab565b5b6000612fa585828601612a3b565b9250506020612fb685828601612f6b565b9150509250929050565b6000602082019050612fd56000830184612ba1565b92915050565b600081519050919050565b600082825260208201905092915050565b6000819050602082019050919050565b61301081612c60565b82525050565b60608201600082015161302c6000850182612dd9565b50602082015161303f6020850182612dd9565b5060408201516130526040850182613007565b50505050565b60006130648383613016565b60608301905092915050565b6000602082019050919050565b600061308882612fdb565b6130928185612fe6565b935061309d83612ff7565b8060005b838110156130ce5781516130b58882613058565b97506130c083613070565b9250506001810190506130a1565b5085935050505092915050565b600060208201905081810360008301526130f5818461307d565b905092915050565b600060408201905081810360008301526131178185612c07565b90506131266020830184612ba1565b9392505050565b60006040820190506131426000830185612ba1565b81810360208301526131548184612c07565b90509392505050565b60006020820190506131726000830184612c72565b92915050565b600081519050919050565b600082825260208201905092915050565b6000819050602082019050919050565b6131ad81612c81565b82525050565b6000610160830160008301516131cc6000860182612dd9565b5060208301516131df6020860182612dd9565b5060408301516131f26040860182612dd9565b506060830151848203606086015261320a8282612da0565b915050608083015161321f6080860182613007565b5060a083015161323260a0860182612dd9565b5060c083015161324560c0860182612dd9565b5060e083015161325860e08601826131a4565b506101008301518482036101008601526132728282612da0565b91505061012083015184820361012086015261328e8282612da0565b9150506101408301518482036101408601526132aa8282612da0565b9150508091505092915050565b60006132c383836131b3565b905092915050565b6000602082019050919050565b60006132e382613178565b6132ed8185613183565b9350836020820285016132ff85613194565b8060005b8581101561333b578484038952815161331c85826132b7565b9450613327836132cb565b925060208a01995050600181019050613303565b50829750879550505050505092915050565b6000602082019050818103600083015261336781846132d8565b905092915050565b600080600060608486031215613388576133876129ab565b5b600061339686828701612a3b565b93505060206133a786828701612a3b565b92505060406133b886828701612a3b565b9150509250925092565b6000602082840312156133d8576133d76129ab565b5b60006133e684828501612f6b565b91505092915050565b600080600060408486031215613408576134076129ab565b5b600061341686828701612a3b565b935050602084013567ffffffffffffffff811115613437576134366129b0565b5b613443868287016129c4565b92509250509250925092565b6000819050919050565b600061347461346f61346a84612c40565b61344f565b612c40565b9050919050565b600061348682613459565b9050919050565b60006134988261347b565b9050919050565b6134a88161348d565b82525050565b60006020820190506134c3600083018461349f565b92915050565b7f676f616c2063616e2774206265207a65726f0000000000000000000000000000600082015250565b60006134ff601283612bbb565b915061350a826134c9565b602082019050919050565b6000602082019050818103600083015261352e816134f2565b9050919050565b7f73746172742074696d6520696e20706173740000000000000000000000000000600082015250565b600061356b601283612bbb565b915061357682613535565b602082019050919050565b6000602082019050818103600083015261359a8161355e565b9050919050565b7f656e64206174206973206265666f72652073746172742074696d650000000000600082015250565b60006135d7601b83612bbb565b91506135e2826135a1565b602082019050919050565b60006020820190508181036000830152613606816135ca565b9050919050565b7f4e487b7100000000000000000000000000000000000000000000000000000000600052601160045260246000fd5b600061364782612a1a565b915061365283612a1a565b925082820190508082111561366a5761366961360d565b5b92915050565b7f656e642061742065786365656473206d6178207261697365206475726174696f60008201527f6e00000000000000000000000000000000000000000000000000000000000000602082015250565b60006136cc602183612bbb565b91506136d782613670565b604082019050919050565b600060208201905081810360008301526136fb816136bf565b9050919050565b7f4e487b7100000000000000000000000000000000000000000000000000000000600052604160045260246000fd5b7f4e487b7100000000000000000000000000000000000000000000000000000000600052602260045260246000fd5b6000600282049050600182168061377857607f821691505b60208210810361378b5761378a613731565b5b50919050565b60008190508160005260206000209050919050565b60006020601f8301049050919050565b600082821b905092915050565b6000600883026137f37fffffffffffffffffffffffffffffffffffffffffffffffffffffffffffffffff826137b6565b6137fd86836137b6565b95508019841693508086168417925050509392505050565b600061383061382b61382684612a1a565b61344f565b612a1a565b9050919050565b6000819050919050565b61384a83613815565b61385e61385682613837565b8484546137c3565b825550505050565b600090565b613873613866565b61387e818484613841565b505050565b5b818110156138a25761389760008261386b565b600181019050613884565b5050565b601f8211156138e7576138b881613791565b6138c1846137a6565b810160208510156138d0578190505b6138e46138dc856137a6565b830182613883565b50505b505050565b600082821c905092915050565b600061390a600019846008026138ec565b1980831691505092915050565b600061392383836138f9565b9150826002028217905092915050565b61393c82612bb0565b67ffffffffffffffff81111561395557613954613702565b5b61395f8254613760565b61396a8282856138a6565b600060209050601f83116001811461399d576000841561398b578287015190505b6139958582613917565b8655506139fd565b601f1984166139ab86613791565b60005b828110156139d3578489015182556001820191506020850194506020810190506139ae565b868310156139f057848901516139ec601f8916826138f9565b8355505b6001600288020188555050505b505050505050565b6000606082019050613a1a6000830186612ba1565b613a276020830185612ba1565b613a346040830184612ba1565b949350505050565b7f63616c6c6572206e6f742066756e647261697365720000000000000000000000600082015250565b6000613a72601583612bbb565b9150613a7d82613a3c565b602082019050919050565b60006020820190508181036000830152613aa181613a65565b9050919050565b7f63616d706169676e20686173206e6f7420656e64656400000000000000000000600082015250565b6000613ade601683612bbb565b9150613ae982613aa8565b602082019050919050565b60006020820190508181036000830152613b0d81613ad1565b9050919050565b7f636c61696d656400000000000000000000000000000000000000000000000000600082015250565b6000613b4a600783612bbb565b9150613b5582613b14565b602082019050919050565b60006020820190508181036000830152613b7981613b3d565b9050919050565b7f63616c6c6572206e6f74206f776e657200000000000000000000000000000000600082015250565b6000613bb6601083612bbb565b9150613bc182613b80565b602082019050919050565b60006020820190508181036000830152613be581613ba9565b9050919050565b7f63616d706169676e206861732073746172746564000000000000000000000000600082015250565b6000613c22601483612bbb565b9150613c2d82613bec565b602082019050919050565b60006020820190508181036000830152613c5181613c15565b9050919050565b7f4e487b7100000000000000000000000000000000000000000000000000000000600052603260045260246000fd5b6000613c9282612a1a565b91507fffffffffffffffffffffffffffffffffffffffffffffffffffffffffffffffff8203613cc457613cc361360d565b5b600182019050919050565b7f43616d706169676e20686173206e6f7420737461727465640000000000000000600082015250565b6000613d05601883612bbb565b9150613d1082613ccf565b602082019050919050565b60006020820190508181036000830152613d3481613cf8565b9050919050565b7f43616d706169676e2068617320656e6465640000000000000000000000000000600082015250565b6000613d71601283612bbb565b9150613d7c82613d3b565b602082019050919050565b60006020820190508181036000830152613da081613d64565b9050919050565b7f616d6f756e742073686f756c64206e6f74206265207a65726f00000000000000600082015250565b6000613ddd601983612bbb565b9150613de882613da7565b602082019050919050565b60006020820190508181036000830152613e0c81613dd0565b9050919050565b600081519050613e2281612a24565b92915050565b600060208284031215613e3e57613e3d6129ab565b5b6000613e4c84828501613e13565b91505092915050565b7f496e73756666696369656e742062616c616e6365000000000000000000000000600082015250565b6000613e8b601483612bbb565b9150613e9682613e55565b602082019050919050565b60006020820190508181036000830152613eba81613e7e565b9050919050565b6000604082019050613ed66000830185612ba1565b613ee36020830184612ba1565b9392505050565b7f4f776e61626c653a206e6577206f776e657220697320746865207a65726f206160008201527f6464726573730000000000000000000000000000000000000000000000000000602082015250565b6000613f46602683612bbb565b9150613f5182613eea565b604082019050919050565b60006020820190508181036000830152613f7581613f39565b9050919050565b7f63616c6c6572206e6f742066756e642072616973657200000000000000000000600082015250565b6000613fb2601683612bbb565b9150613fbd82613f7c565b602082019050919050565b60006020820190508181036000830152613fe181613fa5565b9050919050565b6000604082019050613ffd6000830185612c72565b61400a6020830184612ba1565b9392505050565b7f4f776e61626c653a2063616c6c6572206973206e6f7420746865206f776e6572600082015250565b6000614047602083612bbb565b915061405282614011565b602082019050919050565b600060208201905081810360008301526140768161403a565b9050919050565b60006060820190506140926000830186612c72565b61409f6020830185612c72565b6140ac6040830184612ba1565b949350505050565b6140bd81612c81565b81146140c857600080fd5b50565b6000815190506140da816140b4565b92915050565b6000602082840312156140f6576140f56129ab565b5b6000614104848285016140cb565b91505092915050565b7f5361666545524332303a204552433230206f7065726174696f6e20646964206e60008201527f6f74207375636365656400000000000000000000000000000000000000000000602082015250565b6000614169602a83612bbb565b91506141748261410d565b604082019050919050565b600060208201905081810360008301526141988161415c565b9050919050565b7f416464726573733a20696e73756666696369656e742062616c616e636520666f60008201527f722063616c6c0000000000000000000000000000000000000000000000000000602082015250565b60006141fb602683612bbb565b91506142068261419f565b604082019050919050565b6000602082019050818103600083015261422a816141ee565b9050919050565b600081519050919050565b600081905092915050565b600061425282614231565b61425c818561423c565b935061426c818560208601612bcc565b80840191505092915050565b60006142848284614247565b915081905092915050565b7f416464726573733a2063616c6c20746f206e6f6e2d636f6e7472616374000000600082015250565b60006142c5601d83612bbb565b91506142d08261428f565b602082019050919050565b600060208201905081810360008301526142f4816142b8565b9050919050565b600060208201905081810360008301526143158184612c07565b90509291505056fea26469706673582212204ff364368fa49c6d055ec31c7af9e4404c1c2fe8eb7257257fc9da5e0c0ed38b64736f6c63430008120033",
    "linkReferences": {},
    "deployedLinkReferences": {}
}